:40000000020C32008F828E83E0540100000070F82278FFE4F6D8FD020C90BB010689828A83E0225002E722BBFE02E32289828A83E49322BB010689828A83F0225002F722DC
:40004000BBFE01F322BC000BBE0029EF8DF084FFADF022E4CCF875F008EF2FFFEE33FEEC33FCEE9DEC984005FCEE9DFE0FD5F0E9E4CEFD22EDF8F5F0EE8420D21CFEADF09D
:4000800075F008EF2FFFED33FD4007985006D5F0F222C398FD0FD5F0EA22C5F0F8A3E028F0C5F0F8E582158270021583E038F022EF2BFFEE3AFEED39FDEC38FC22C3EF9B3B
:4000C000FFEE9AFEED99FDEC98FC22E88FF0A4CC8BF0A42CFCE98EF0A42CFC8AF0EDA42CFCEA8EF0A4CDA8F08BF0A42DCC3825F0FDE98FF0A42CCD35F0FCEB8EF0A4FEA925
:40010000F0EB8FF0A4CFC5F02ECD39FEE43CFCEAA42DCE35F0FDE43CFC2275F008758200EF2FFFEE33FECD33CDCC33CCC58233C5829BED9AEC99E58298400CF582EE9BFE1D
:40014000ED9AFDEC99FC0FD5F0D6E4CEFBE4CDFAE4CCF9A88222B800C1B90059BA002DEC8BF084CFCECDFCE5F0CBF97818EF2FFFEE33FEED33FDEC33FCEB33FB10D7039987
:400180004004EB99FB0FD8E5E4F9FA227818EF2FFFEE33FEED33FDEC33FCC933C910D7059BE99A4007EC9BFCE99AF90FD8E0E4C9FAE4CCFB2275F010EF2FFFEE33FEED3392
:4001C000FDCC33CCC833C810D7079BEC9AE899400AED9BFDEC9AFCE899F80FD5F0DAE4CDFBE4CCFAE4C8F922EF4BFFEE4AFEED49FDEC48FC22EB9FF5F0EA9E42F0E99D426A
:40020000F0E89C45F022E8600FECC313FCED13FDEE13FEEF13FFD8F122E8600FEFC333FFEE33FEED33FDEC33FCD8F122BB010789828A830202665005E9F802031FBBFE051C
:40024000E9F802032B89828A83020337BB010789828A8302027E5005E9F8020347BBFE05E9F802035322E0FCA3E0FDA3E0FEA3E0FF22E0F8A3E0F9A3E0FAA3E0FB22ECF053
:40028000A3EDF0A3EEF0A3EFF022E0FBA3E0FAA3E0F922EBF0A3EAF0A3E9F022E493FB740193FA740293F922D083D082F8E4937012740193700DA3A393F8740193F5828822
:4002C00083E4737402936860EFA3A3A380DFE50C2582F582E50B3583F583B50B0485820C2210AF0685820CF50B2285820CF50BD2AF22EC8EF0A4CCC5F0CCCDF8EFA4CEC5FE
:40030000F02DFDE43CFCE8A42EC8C5F03DFDE43CFCEFA4FFE5F028FEE43DFDE43CFC22E6FC08E6FD08E6FE08E6FF22E2FC08E2FD08E2FE08E2FF22E493FC740193FD7402A3
:4003400093FE740393FF22ECF608EDF608EEF608EFF622ECF208EDF208EEF208EFF222900089EFF0900089E0FFEF90222D93FF900092EFF0900092E0FFEF90223793FF90F5
:400380000093EFF0900089E0FFEF25E02475F582E43400F583E0FEA3E0FF900090EEF0A3EFF0900089E0FFEF25E02450F582E43400F583E0FEA3E0FF900090E0FCA3E0FD1C
:4003C000C3ED9FEC9E4035900089E0FFEF25E02450F582E43400F583E0FEA3E0FF900090E0FCA3E0FDC3ED9FFFEC9EFE90008EEEF0A3EFF09000927401F08032900089E0E6
:40040000FFEF25E02450F582E43400F583E0FEA3E0FF900090E0FCA3E0FDC3EF9DFFEE9CFE90008EEEF0A3EFF0900092E4F0900092E0FFEF705990008EE0FEA3E0FFD3EF2F
:400440009414EE94004048900089E0FF74462FF582E43400F583E0FFEFC39405401C900089E0FF121350900089E0FF74462FF582E43400F583E4F00205AB900089E0FF7415
:40048000462FF582E43400F583E004F00205AB900093E0FF7E0090008EE0FCA3E0FDD3ED9FEC9E401F90008EE0FEA3E0FFC3EF9414EE940040030205AB900092E0FFEF6059
:4004C000030205AB900089E0FFEF25E02450F582E43400F583E0FEA3E0FFE4FCFD780812021990008A12027E90008A120272900089E0FF745F2FF582E43400F583E0FFE4E6
:40050000FCFDFE1201E890008A12027E90008A120272900090E0FEA3E0FFE4FCFD1200B090008A12027E90008A120266C004C005C006C007900089E0FFEF25E02450F58231
:40054000E43400F583E0FEA3E0FFAB07AA06E4F9F8D007D006D005D0041200BD90008A12027E90008A1202667808120206900089E0FDED25E02450F582E43400F583EEF014
:40058000A3EFF090008A120266900089E0FE745F2EF582E43400F583EFF0900089E0FF74462FF582E43400F583E4F0900093E0FF7E0090008EE0FCA3E0FDD3ED9FEC9E4068
:4005C00046900092E0FFEF603E90008EE0FEA3E0FFD3EF94FFEE94004013900089E0FF74662FF582E43400F58374FFF02290008EE0FEA3E0FF900089E0FE74662EF582E41A
:400600003400F583EFF022900089E0FF74662FF582E43400F583E4F0227B007A4679E8122154EF4405FD7B007A4679E8122160750A00E50AC39409503AAF0AEF75F005A47A
:40064000248AF582E43421F583AF82AE838E088F09AE08AF098F828E8312029CAE08AF098F828E83740393FC740493FD122013050A80BF7B087A007900121EC57B007A58EB
:4006800079727D007C031221397B007A5879487D037C001221397B017A0A79D87F007E007D047CC41220F37B017A507903122154EF4402FD7B017A5079031221607B017A77
:4006C000507913122154EF4402FD7B017A5079131221609043A0E0FFEF4440FF9043A0EFF09043C2E0FFEF4410FF9043C2EFF07B087A0279E4C003C002C0017B007A51795F
:400700001290008B120293D001D002D0037F087E00121DA77B087A0279ECC003C002C0017B007A51792290008B120293D001D002D0037F087E00121DA77B087A0279F4C0CA
:4007400003C002C0017B007A51795290008B120293D001D002D0037F087E00121DA77B087A0279FCC003C002C0017B007A51796290008B120293D001D002D0037F087E00B7
:40078000121DA79044F47401F0904322E0FFEF4408FF904322EFF09046ECE0FFEFC394055006904689743AF09048007431F0120B2E90480074B1F01219A27B007A4379A052
:4007C000C003C002C0017B007A4379B090008B120293D001D002D0037F0E7E00121DA79043B0E0FFEF54FDFFEFF02290008AEFF090008AE0FFEF131313541FFF90008CEF00
:40080000F090008AE0FFEF5407FF7401A807088002C333D8FCFF90008DEFF090008AE0FFEF90222D93FF90008EEFF090008EE0FFEF90223493FF90008FEFF090008EE0FF5E
:40084000EF90223A93FF900090EFF090008EE0FFEF90223D93FF900091EFF090008EE0FFEFC39401501A90008B7402F090008BE0FF744D2FF582E43400F5837401F0800D8D
:4008800090008EE0FFEF14FF90008BEFF090008CE0FF745E2FF582E43400F583E0FF90008DE0FEEF5EFFEF6066900090E0FF90008FE0FEC3EE9FFF90008AE0FE74662EF521
:4008C00082E43400F583E0FEEEC39F400302099690008CE0FF745E2FF582E43400F583C083C082E0FF90008DE0FEEEF4FEEF5EFFD082D083EFF0900091E0FF90008BE0FEC9
:40090000744D2EF582E43400F583EFF0020996900090E0FF90008FE0FEEE2FFF90008AE0FE74662EF582E43400F583E0FEEED39F404E90008BE0FF744D2FF582E43400F5E8
:4009400083E0FFEFD39401502390008CE0FF745E2FF582E43400F583C083C082E0FF90008DE0FEEF4EFFD082D083EFF090008BE0FF744D2FF582E43400F583E014F08016BE
:40098000900091E0FF90008BE0FE744D2EF582E43400F583EFF090008CE0FF745E2FF582E43400F583E0FF90008DE0FEEF5EFFEF60047F0180027F00227F947E017D007CBF
:4009C0000090009212027E905120E0FFEF5480FFEFF0905122E0FFEF54F0FF900091EFF0900091E0FFEF440FFF905122EFF0905123E0FFEF54F0FF900091EFF0900091E075
:400A0000FF905123EFF0905124E0FFEF54F0FF900091EFF0900091E0FF905124EFF0905120E0FFEF54DFFFEFF0905120E0FFEF4440FFEFF07F007E00121E98905120E0FF24
:400A4000EF4410FFEFF07F017E00121E98905121E0FF900091EFF0905120E0FFEF54EFFFEFF07F007E00121E98900091E0FFEF5408FF900091EFF0905120E0FFEF4410FF8D
:400A8000EFF07F017E00121E98905120E0FFEF54EFFFEFF0900091E0FFEF70077F0A7E00121E989000921202667BFF7AFF79FF78FF1200B090009212027E900091E0FFEF89
:400AC0006012900092120266D3EF9400EE94004003020A34905120E0FFEF54BFFFEFF0905120E0FFEF5480FFEFF0905122E0FFEF54F0FFEFF0905123E0FFEF54F0FF9000B4
:400B000091EFF0900091E0FFEF440FFF905123EFF0905124E0FFEF54F0FF900091EFF0900091E0FFEF440FFF905124EFF0227B007A4079807D017C00122139904082741852
:400B4000F09043007402F09040007408F09042007403F07B0C7A0179081221549046A1EFF07B007A4279227D087C001221397B007A4279207D517C1212213990008AE4F0B2
:400B80007F197E007D007C0090008612027E900086120266D3EF9400EE9400404E90008AE0FFEF64036044904225E0FFEF5401FF7E0090008AE0FEEE25E0FEEE4FFFEF5496
:400BC00003FF90008AEFF07FE07E017D007C00121D009000861202667BFF7AFF79FF78FF1200B090008612027E80A3900086120266EF4E70057F031221087B007A40790444
:400C00007D007C011221399040047407F0904006E4F09040087448F0904004E4F09040017402F09043A2E0FFEF4401FF9043A2EFF02275930078007583467582E8E0440143
:400C4000F0009046ECE0F99046FAE0FAB903225420B40012B8001AEA901FFFF07401901FFEF09046F6F0901FFEE06005901FFFE0FA90480074C0F075810C90000078007906
:400C800020E4F0A3D8FCD9FAEA9000A1F0020011750B1F750CFD121954120619020CDA021B9AE493A3F8E493A34003F68001F208DFF48029E493A3F85407240CC8C333C4F1
:400CC000540F4420C8834004F456800146F6DFE4800B01020408102040809014E0E47E019360BCA3FF543F30E509541FFEE493A360010ECF54C025E060A840B8E493A3FA6B
:400D0000E493A3F8E493A3C8C582C8CAC583CAF0A3C8C582C8CAC583CADFE9DEE780BE900086EFF0900087EDF0900088EBF0900089E0FF7E007C007D0512004590008BEF12
:400D4000F0900089E0FF7E007C007D05120045AF0590008CEFF0900088E0FF90008BE0FEEEC39F400A900088E0FF90008BEFF0900086E0FF900087E0FD12180290008BE07E
:400D8000FF90008AEFF090008AE0FFEFD39400400D7F00121CBF90008AE014F080E8900088E0FF90008BE0FEEEC39F505390008CE0FF121D3B900088E0FF7E00EF24FFFFFF
:400DC000EE34FFFE90008BE0FD7C00C3ED9FEC9E502E90008BE0FF900088E0FEC3EE9FFFEF14FF90008AEFF090008AE0FFEFD39400400D7F05121CBF90008AE014F080E85C
:400E0000227F02121749EF60287F00121DDB9000AAE4F0A37401F09000A6E4F0A3E4F07D0B7F011218027BFF7A1F799312190680089000AAE4F0A3E4F09000AAE0FEA3E0DA
:400E4000FFEF4E6003020EE19000A674FF75F0FF12009A9000A6E0FEA3E0FFEEC313FEEF13FF900089EFF07B107D007F00120D1F7F647E007D007C001216229000A6E0FE5B
:400E8000A3E0FFEF4E705A9000ACE0FFC3EF648094A0504D7D077F001218027BFF7A1F79991219067D0B7F011218027BFF7A1F799E1219067F01121DDB7FF47E017D007C9E
:400EC000001216227F00121DDB7F01121D717FF47E017D007C001216229000ACE004F080A622121FB57F02121F4A1220DE900086EFF090649AE0FFEF4403FFEFF090649B7B
:400F0000E0FFEF4403FFEFF0900086E0FF12202C7B027A64792A7D007CB412213B7B027A64794A7DFF7CFF12213B90648B7407F01220DE900086EFF090649CE0FFEF44033B
:400F4000FFEFF090649DE0FFEF4403FFEFF0900086E0FF12202C90642C74FFF090644C74FFF090640C74FFF090642D74FFF090645D74FFF090644D74FFF09044C87401F056
:400F80007C127D137F0012145E7D077F001216EA121CF57F07121A827F08121A827F09121A8290647AE0FFEF4404FFEFF0121BD8121EF27F00121E0C7F04121E3B7F001276
:400FC000211A2290FFFF1202CEEFF090647AE0FFEF54FCFFEFF090641DE0FF7E00EF7F00FE850B83850C82E0FDED25E02475F582E43400F583EEF0A3EFF0850B83850C82E6
:40100000E0FFEF25E02475F582E43400F583C083C082E0FEA3E0FF90640DE0FD7C00EE4CFEEF4DFFD082D083EEF0A3EFF0850B83850C82E0FFEF25E02475F582E43400F570
:4010400083E0FEA3E0FFC374FF9FFF74FF9EFE850B83850C82E0FDED25E02475F582E43400F583EEF0A3EFF0850B83850C82E0FF12108A7F0012211A905870E0FFEF4401CD
:40108000FFEFF09000011202CE2290FFFF1202CEEFF090FFFE1202CE850B83850C82A3A3E0FFEF90220593FF850B83850C82EFF0850B83850C82A3A3E0FFEF90220C93FFED
:4010C000850B83850C82A3EFF0850B83850C82A3A3E0FF1219EF850B83850C82E0FFEFB40F09850B83850C827407F0850B83850C82E0FFEF25E02413F582E43422F583E455
:4011000093FE740193FF8F828E83C083C082E0FF850B83850C82A3E0FEEEF4FEEF5EFFD082D083EFF0850B83850C82A3A3E0FFEF25E024F7F582E43421F583E493FE7401CE
:4011400093FF8F828E837408F09000031202CE2290FFFF1202CEEFF090FFFE1202CE850B83850C82A3A3E0FFEF90220593FF850B83850C82EFF0850B83850C82A3A3E0FF27
:40118000EF90220C93FF850B83850C82A3EFF0850B83850C82A3A3E0FFEF25E024F7F582E43421F583E493FE740193FF8F828E837409F0850B83850C82E0FFEFB40F098576
:4011C0000B83850C827407F0850B83850C82E0FFEF25E02413F582E43422F583E493FE740193FF8F828E83C083C082E0FF850B83850C82A3E0FEEF4EFFD082D083EFF0859C
:401200000B83850C82A3A3E0FF121A829000031202CE22C0E0C0F0C083C082C085C084C086758600C093759300C0D075D000C000C001C002C003C004C005C006C007900028
:401240006DE0FF120FC3900083E0FFEF5480FF7E00EF4E6010900083E0FFEF54FEFF900083EFF0803090006DE0FF1212B890006DEFF090006DE0FFEFC39407500A90006D77
:40128000E0FF121B10800E900083E0FFEF54FEFF900083EFF0D007D006D005D004D003D002D001D000D0D0D093D086D084D085D082D083D0F0D0E03290FFFF1202CEEFF02C
:4012C00090FFFE1202CE850B83850C82A3A3E004F0850B83850C82A3A3E0FFEF6407605F850B83850C82A3A3E0FFEF131313541FFF850B83850C82EFF0850B83850C82A328
:40130000A3E0FFEF5407FF7401A807088002C333D8FCFF850B83850C82A3EFF0850B83850C82E0FF74852FF582E43400F583E0FF850B83850C82A3E0FEEF5EFFEF60878562
:401340000B83850C82A3A3E0FF9000031202CE22900094EFF0900094E0FFEF90222D93FF900095EFF0900094E0FFEF25E02475F582E43400F583E0FEA3E0FF900094E0FDAE
:40138000ED25E02450F582E43400F583EEF0A3EFF0900094E0FF745F2FF582E43400F583E4F0900094E0FF74662FF582E43400F583E4F0900095E0FFEFD39400401C900053
:4013C00095E0FFEF90223D93FF900095E0FE744C2EF582E43400F583EFF0227F287E007D007C001216227F03121A397F057E007D007C001216227F03121A397F0F7E007D0C
:40140000007C001216227F03121A397F017E007D007C001216227F02121A397F057E007D007C001216227F06121D717F0E121D717F2C121D717F08121D717F01121D717F30
:401440000C121D717F03121D717F057E007D007C001216227BFF7A2179B7121AC922900087EFF0900088ECF0A3EDF0900087E0FFEFD3941F5003D38001C340057F001220C8
:40148000B4900087E0FFEF541FFF7E00EF25E0FFEE33FEEF2400FFEE3444FEAA06A9077B0112212C90008AEEF0A3EFF0900087E0FF7E02EF8EF0A4FFAEF0EF2400FFEE340E
:4014C00044FEAA06A9077B01900088E0FEA3E0FFAD07AC0612213B90008AE0FEA3E0FF224200A600A04200AF00004100AC004200AA00004200A813884200AD00004100B728
:40150000004100B60044009D016E360044009800005DC041009C184400A22EE00000410084004100857F47006E0B0B0B0B0B0B0B43004D0000004100BA004100B90041007A
:40154000B8FF4100BB004300B10000004100BC000090FFFF1202CEEFF090FFFF1202CE850B83850C82A3E0FFEF90222D93FF850B83850C82EFF0850B83850C82A3E0FFEF64
:4015800090222393FF12211A850B83850C82E0FFEF90222A93FF90645CEFF0850B83850C82A3E0FF746E2FF582E43400F583E0FF121E6A9000021202CE22900086E4F0909D
:4015C0000086E0FFEFC394075057900086E0FFEF131313541FFF900087EFF0900086E0FFEF5407FF7401A807088002C333D8FCFF900088EFF0900087E0FF74852FF582E4E8
:401600003400F583E0FF900088E0FEEF5EFFEF6008900086E0FF12035F900086E004F0809E2290FFFC1202CE12027E850B83850C82120266D3EF9400EE9480402F9000A25B
:40164000120266121D00850B83850C82C083C082120266EF2400FFEE3480FEED34FFFDEC34FFFCD082D08312027E80BF900098120266850B83850C821202721200CB121DE2
:40168000009000041202CE22900087EFF0900087E0FFEF5403FF905840E0FEEE54FCFEEE4FFF905840EFF0900087E0FFEFB4011D7B0C7A017910122154904630EFF07B0CA7
:4016C0007A017914122154904631EFF0227B0C7A0179AD122154904630EFF07B0C7A0179B5122154904631EFF022900087EFF0900088EDF0900088E0FFEFD394075003D39B
:401700008001C340057F001220B4900087E0FFEFD3941F5003D38001C340057F001220B4900088E0FFEF5407FF7E00EF75F020A4FFAEF0900087E0FEEE541FFE74802EF55E
:4017400082E43444F583EFF022900086EFF0900086E0FFEF90224093FF900087EFF0900086E0FFEF90224393FF900087E0FEEF2EFF900088EFF0900089E4F0900087E0FF69
:401780001207EBEF60069000897401F0900087E004F0900088E0FF900087E0FEEEC39F40DA900089E0FF2290008FEFF0905120E0FFEF4420FFEFF0905120E0FFEF54BFFF07
:4017C000EFF07F007E00121E98905120E0FFEF54F0FFEFF0905120C083C082E0FF90008FE0FEEE4410FEEF4EFFD082D083EFF07F017E00121E98905120E0FFEF54EFFFEF2C
:40180000F02290008DEFF090008EEDF090008DE0FFEF1202A8182500183201183F02184C030000185890008EE0FFEF2480FF121D712290008EE0FFEF24C0FF121D712290CE
:40184000008EE0FFEF2494FF121D712290008EE0FFEF24D4FF121D71221220DE900086EFF090649BE0FFEF4420FFEFF012204412205B1220729043BBE0FFEF4410FFEFF015
:401880009043ABE0FFEF4410FFEFF0905870E0FFEF4401FFEFF0900086E0FF12202C9044C07401F090647AE0FFEF4480FFEFF022905824E0FFEF540CFF7E00EEC313FEEFAD
:4018C00013FF900088EFF0905825E0FFEF5404FF7E00EF64044E7006900088E004F0900088E0FFE4FCFDFEEF2430FFEE3401FEED340CFDEC3400FCA907AA06AB0512215416
:40190000904609EFF0229000861202939000897401F090008612028A12001AFF90008AEFF090008AE0FFEF602A90008AE0FF121D3B90008612028A900089E0FFE92FF9E43E
:401940003AFA12001AFF90008AEFF0900089E004F080CE22900086E4F0900086E0FFEFD3941F503D900086E0FF7E02EF8EF0A4FFAEF0EF2400FFEE3444FEAA06A9077B015C
:40198000C003C002C0017BFF7A1C79F9AC02AD01D001D002D00312213B900086E004F080B8227B0C7A0179CF122154900086EFF0900086E0FFEF5407FF90586EEFF0900012
:4019C00086E0FFEFC4540FFFEF540FFF90586FEFF090516D7410F0905870E4F0905AC37420F0905B5B7401F09058767444F022900096EFF0900096E0FFEFC3940A50399081
:401A00000096E0FFEF25E0246CF582E43421F583E493FE740193FF8F828E83C083C082E0FF900096E0FEEE90218093FEEEF4FEEF5EFFD082D083EFF022900091EFF090511C
:401A400020E0FFEF549FFFEFF0905120E0FFEF54F0FFEFF0905120C083C082E0FF900091E0FEEE4410FEEF4EFFD082D083EFF07F017E00121E98905120E0FFEF54EFFFEF8C
:401A8000F022900096EFF0900096E0FFEFC3940A5036900096E0FFEF25E0246CF582E43421F583E493FE740193FF8F828E83C083C082E0FF900096E0FEEE90218093FEEFDE
:401AC0004EFFD082D083EFF0229000861202931209B97F40121D71900089E4F0900089E0FFEFC39440502090008612028A900089E0FFE92FF9E43AFA12001AFF121D3B902E
:401B00000089E004F080D51209B97F80121D712290FFFF1202CEEFF0850B83850C82E0FF12155190647AE0FFEF4401FFEFF0905870E0FFEF54FEFFEFF0850B83850C82E0D7
:401B4000FF12115090647AE0FFEF4402FFEFF09000011202CE22C2D5E830E70FB2D5E4C39BFBE49AFAE499F9E498F8EC30E717B2D5121B8C120156E4C39BFBE49AFAE4993E
:401B8000F9E498F8800312015630D50DE4C39FFFE49EFEE49DFDE49CFC22D2AF9044F474FDF012209F1220C97BFF7A2179B7121AC97D007F011218027BFF7A1F79A41219A5
:401BC00006121FD6122089EF70061215BA121C15120E0180EF80FE227F00121688905840E0FFEF4420FFEFF0905840E0FFEF54FBFFEFF0905840E0FFEF4408FFEFF0905AD0
:401C0000C7E0FFEF54E7FFEFF0905AC7E0FFEF4410FFEFF022900083E4F090006D74FFF090006DE0FF1212B890006DEFF090006DE0FFEFC394075016900083E0FFEF440193
:401C4000FF900083EFF090006DE0FF121B102290FFFF1202CE850B83850C82E4F0850B83850C82E0FFEFC3940A5016850B83850C82E0FF1219EF850B83850C82E004F0807A
:401C8000DC9000011202CE2290008FEFF0905120E0FFEF54EFFFEFF0905120C083C082E0FF90008FE0FEEE4410FEEF4EFFD082D083EFF0905120E0FFEF4420FFEFF02290A0
:401CC000008DEFF01209B990008DE0FFEFC4540FFF90008EEFF090008EE0FF121C8890008DE0FFEF540FFF90008EEFF090008EE0FF121C8822121C4F2280FE320000000075
:401D0000EC4D4E700D78FCEF24E950032840FD2200007BF178DA0000EF28FF78FFEE38FEED38FDEC38FC50E7EF2BFFEE38FEED38FDEC38FC40F2220502030490008DEFF090
:401D40001209B990008DE0FFEFC4540FFF90008EEFF090008EE0FF1217A790008DE0FFEF540FFF90008EEFF090008EE0FF1217A72290008FEFF01209B990008FE0FFEFC4F8
:401D8000540FFF900090EFF0900090E0FF121A3990008FE0FFEF540FFF900090EFF0900090E0FF121A3922758600EF4E6027EF60010E75930090008BE0F595A3E0F585A340
:401DC000E0F5848B938A838982E0A30586F0A31586DFF6DEF4E4F593F59522900086EFF0905160E0FFEF54F7FF900087EFF0900086E0FFEF33333354F8FFEF5408FF900073
:401E000087E0FEEF4EFF905160EFF022900087EFF0905825E0FFEF54FBFFEFF0905825C083C082E0FF900087E0FEEE5404FEEF4EFFD082D083EFF01218B022900087EFF065
:401E4000905824E0FFEF54F3FFEFF0905824C083C082E0FF900087E0FEEE540CFEEF4EFFD082D083EFF01218B02290FFFF1202CEEFF0850B83850C82E0FF906429EFF08521
:401E80000B83850C82E0FFEFC313FF906439EFF09000011202CE2200EEFA90009CE0F88FF0A4FFAEF0E88AF0A42EFEE5F03400FDEF24C9FF78FFEE38FEED38FDE438FC5059
:401EC00003021D0022ACEAADA08B938A838982E0F96017A3E0F5EAA3E0F5A0A3E060F4FAA3E0F8A3E0F2DAF8D9E98DA08CEAE4F593229058247414F0905825E4F0905825C3
:401F0000E0FFEF4404FFEFF0905825E0FFEF4402FFEFF07F007E00121F1E1218B022900087EFF0905824E0FFEF54FDFFEFF0905824C083C082E0FF900087E0FEEE5402FEC0
:401F4000EF4EFFD082D083EFF022900087EFF0900087E0FFEFB4010C90647AE0FFEF54EFFFEFF02290647AE0FFEF4410FFEFF022900088EFF0900083E4F0900088E0FF906F
:401F8000006DEFF09000837481F0900088E0FF121B10222020202020005369636B00416C61726D004B6F7270616E2042313420434F56494400900087E4F0900087E0FFEFD9
:401FC000C394075010900087E0FF12108A900087E004F080E522900086E4F0900086E0FFEFC394075010900086E0FF121FF7900086E004F080E522900087EFF0900087E008
:40200000FF121F70122089EF70FA900087E0FF12135022EC4D6011ED60010C8B938A838982E4F0A3DDFCDCFA75930022EF54016004D2AF8002C2AFEF5402FF9044F4E05479
:40204000FD4FF0229043A2E0FFEF4401FFEFF09043B2E0FFEF4401FFEFF0229043A7E0FFEF4401FFEFF09043B7E0FFEF4401FFEFF0229043A8E0FFEF4402FFEFF09043B804
:40208000E0FFEF4402FFEFF022900083E0FFEF5401FF7E00EF4E60047F0180027F00229000B6E0FFEF70091213DB9000B67401F01221482290FFFF1202CEEFF09046EA74BD
:4020C00001F09000011202CE22900084E0FFEF7009120EE29000847401F0121859229044F4E0F84402F0E85402FF10AF012274014FFF228B938A838982EFF0A3EEF0A3EDDF
:40210000F0A3ECF07593002290008BEFF090008BE0FF90008BEFF080FE22900096EFF0900096E0FF905B81EFF0228B938A838982E0FFA3E0FE759300228B938A838982ED1E
:40214000F0A3ECF0759300227F0C121D719000B77401F0228B938A838982E0759300FF228B938A838982EDF075930022515C515C515C515C515C515C515C516C5AC35A8BD7
:4021800001020408102040100110005100001000513000200051C000100051F00010010000100001140008000140000A00014C0002000150000020000000000000000010C2
:4021C0001010101010101018181818181818181C1C1C1C1C1C1C1C1E1E1E1E1E1E1E1E1F1F1F1F1F1F1F1F0000000000000000000000000000000050285029502A502B50B1
:402200002C502D502E05050505050505010204081020405206520E5216521E5226522E5236527EC8C8C8C8C8C8C83F3F1F00000000000102547C422A2D210012090105052D
:402240000005060501011900000000000000000000000000000000000000000000000000000000000000000000000000000000000000000000000000000000000000000033
:40228000000000000000000000000000000000000000000000000000000000000000000000000000000000000000000000000000000000000000000000000000000000001E
:4022C00000000000000000000000000000000000000000000000000000000000000000000000000000000000000000000000000000000000000000000000000000000000DE
:40230000000000000000000000000000000000000000000000000000000000000000000000000000000000000000000000000000000000000000000000000000000000009D
:40234000000000000000000000000000000000000000000000000000000000000000000000000000000000000000000000000000000000000000000000000000000000005D
:0200000480007A
:40000000150052012E7F00640809FF0CFF0DFF1CFF1DFF2CFF2DFF8B1F010301E20801081D87028D049B01A101A302A504B504B703B920BF40C065C654C702C81CC9FFCA64
:40004000FFCBFFCC02CD20CF05D110D904DA04DF01E040E140E280E480E68001091122502A022B20321038803A044808494050485320962099409A06CA03CC04CE0AD20C9D
:40008000010A4B0016017602280308043A06040704097A0B040C2E0D7E0E101108153E160117401B011C011D201F02214C233228202A082B042D102E062F0230303101321E
:4000C0000C33063401360237784002410549FF4AFF4BFF4C024D0C4EF85217580459045A045B045F01624863A168F06AF06CF06EF0C006C105C70AC9FFCAFFCBFFCC03CDA2
:400100000CCEF4D602DA04DB04DE08DF01E248E3A1E8F0EAF0ECF0EEF0010B30018A0A2210081140184019EA1A141BC42201231129012A402B043002310432503840390400
:400140003B11420449404D204F805604680869447202740277807F809280944095049610971199059A409F80B680C00DC205C403CA0DCC0FCE0FD004D238DE80010C5208AA
:400180000F0C041004120B1404180A1E04200122082E043004320334083E144026410345664602480758045A045F01610C62F0630C650C670C6840694C6A406B4C6C906DE0
:4001C000586F0C85528604880489788A028B048C048D29900492019303960497609C049D7BA201A37BA804AC01B107B204B360B403B718BE10BF45C034C105C762C830D633
:4002000008D804D904DA04DB0CDF01E10CE2F0E30CE50CE70CE840E94CEA40EB4CEC90ED58EF0C010D3200500104045009020A100B010D020F151181131015401640178008
:40024000181019041B101D2B200221052901300A328038103A403B044105452848014D014E404F24500A554056405A406280794087109240C0C7C2FDC49BCA01CC0BCE0ED6
:40028000D063D228D608D808DE08010F018E40011701EE01011901AA400140023120CC100141038520A520E21001440429808D80CA08E6020145023940CE08014602B540E2
:4002C000E802014803A310AB10EE800149037B10A310DE4001500300010C010E0101510100030000000B0B0000000000007F7F000000000000007F0000000000000C0C00D1
:4003000000001000000000000000000000000000000000000000000000000000000000000000000000000000000000000000000000000000000000000000000000000000AD
:40034000000000000000000000000000000000000000000000000000000000000000000000000000000000000000000000000000000000000000000000000000000000007D
:40038000000000000000000000000000000000000000000000000000000000000000000000000000000000000000000000000000000000000000000000000000000000003D
:4003C00000000000000000000000000000000000000000000000000000000000000000000000000000000000000000000000000000000000000000000000000000000000FD
:4004000000000000000000000000000000000000000000000000000000000000000000000000000000000000000000000000000000000000000000000000000000000000BC
:0200000490006A
:0400000000004005B7
:0200000490105A
:04000000BC90ACAF55
:0200000490303A
:020000008D7AF7
:0200000490501A
:0C00000000011E02806903011E150DE3C3
:0200000490402A
:4000000000000000000000000000000000000000000000000000000000000000000000000000000000000000000000000000000000000000000000000000000000000000C0
:00000001FF
