:10000000020C32008F828E83E0540100000070F8F1
:100010002278FFE4F6D8FD020C90BB010689828AA3
:1000200083E0225002E722BBFE02E32289828A8318
:10003000E49322BB010689828A83F0225002F722D0
:10004000BBFE01F322BC000BBE0029EF8DF084FF44
:10005000ADF022E4CCF875F008EF2FFFEE33FEECA4
:1000600033FCEE9DEC984005FCEE9DFE0FD5F0E9CB
:10007000E4CEFD22EDF8F5F0EE8420D21CFEADF0CA
:1000800075F008EF2FFFED33FD4007985006D5F0CF
:10009000F222C398FD0FD5F0EA22C5F0F8A3E028BC
:1000A000F0C5F0F8E582158270021583E038F02281
:1000B000EF2BFFEE3AFEED39FDEC38FC22C3EF9B4F
:1000C000FFEE9AFEED99FDEC98FC22E88FF0A4CCAF
:1000D0008BF0A42CFCE98EF0A42CFC8AF0EDA42C6F
:1000E000FCEA8EF0A4CDA8F08BF0A42DCC3825F03E
:1000F000FDE98FF0A42CCD35F0FCEB8EF0A4FEA929
:10010000F0EB8FF0A4CFC5F02ECD39FEE43CFCEA35
:10011000A42DCE35F0FDE43CFC2275F0087582007C
:10012000EF2FFFEE33FECD33CDCC33CCC58233C5BC
:10013000829BED9AEC99E58298400CF582EE9BFE4D
:10014000ED9AFDEC99FC0FD5F0D6E4CEFBE4CDFAA8
:10015000E4CCF9A88222B800C1B90059BA002DEC4C
:100160008BF084CFCECDFCE5F0CBF97818EF2FFFE4
:10017000EE33FEED33FDEC33FCEB33FB10D703998C
:100180004004EB99FB0FD8E5E4F9FA227818EF2F39
:10019000FFEE33FEED33FDEC33FCC933C910D70558
:1001A0009BE99A4007EC9BFCE99AF90FD8E0E4C977
:1001B000FAE4CCFB2275F010EF2FFFEE33FEED33A7
:1001C000FDCC33CCC833C810D7079BEC9AE89940D4
:1001D0000AED9BFDEC9AFCE899F80FD5F0DAE4CD36
:1001E000FBE4CCFAE4C8F922EF4BFFEE4AFEED49FE
:1001F000FDEC48FC22EB9FF5F0EA9E42F0E99D42BF
:10020000F0E89C45F022E8600FECC313FCED13FD11
:10021000EE13FEEF13FFD8F122E8600FEFC333FFB8
:10022000EE33FEED33FDEC33FCD8F122BB01078940
:10023000828A830202665005E9F802031FBBFE05AD
:10024000E9F802032B89828A83020337BB010789FD
:10025000828A8302027E5005E9F8020347BBFE054D
:10026000E9F802035322E0FCA3E0FDA3E0FEA3E0D3
:10027000FF22E0F8A3E0F9A3E0FAA3E0FB22ECF010
:10028000A3EDF0A3EEF0A3EFF022E0FBA3E0FAA3CE
:10029000E0F922EBF0A3EAF0A3E9F022E493FB7487
:1002A0000193FA740293F922D083D082F8E4937018
:1002B00012740193700DA3A393F8740193F58288CF
:1002C00083E4737402936860EFA3A3A380DFE50C5B
:1002D0002582F582E50B3583F583B50B0485820C09
:1002E0002210AF0685820CF50B2285820CF50BD20D
:1002F000AF22EC8EF0A4CCC5F0CCCDF8EFA4CEC5E7
:10030000F02DFDE43CFCE8A42EC8C5F03DFDE43C26
:10031000FCEFA4FFE5F028FEE43DFDE43CFC22E612
:10032000FC08E6FD08E6FE08E6FF22E2FC08E2FD26
:1003300008E2FE08E2FF22E493FC740193FD7402DC
:1003400093FE740393FF22ECF608EDF608EEF60830
:10035000EFF622ECF208EDF208EEF208EFF222904E
:100360000089EFF0900089E0FFEF9021CD93FF909E
:100370000092EFF0900092E0FFEF9021D793FF9072
:100380000093EFF0900089E0FFEF25E02475F582FF
:10039000E43400F583E0FEA3E0FF900090EEF0A3CC
:1003A000EFF0900089E0FFEF25E02450F582E4347F
:1003B00000F583E0FEA3E0FF900090E0FCA3E0FDE9
:1003C000C3ED9FEC9E4035900089E0FFEF25E024CF
:1003D00050F582E43400F583E0FEA3E0FF90009046
:1003E000E0FCA3E0FDC3ED9FFFEC9EFE90008EEECF
:1003F000F0A3EFF09000927401F08032900089E059
:10040000FFEF25E02450F582E43400F583E0FEA3FD
:10041000E0FF900090E0FCA3E0FDC3EF9DFFEE9CA9
:10042000FE90008EEEF0A3EFF0900092E4F09000CA
:1004300092E0FFEF705990008EE0FEA3E0FFD3EF53
:100440009414EE94004048900089E0FF74462FF524
:1004500082E43400F583E0FFEFC39405401C900074
:1004600089E0FF121308900089E0FF74462FF5829F
:10047000E43400F583E4F00205AB900089E0FF74FA
:10048000462FF582E43400F583E004F00205AB90DA
:100490000093E0FF7E0090008EE0FCA3E0FDD3ED32
:1004A0009FEC9E401F90008EE0FEA3E0FFC3EF9400
:1004B00014EE940040030205AB900092E0FFEF6061
:1004C000030205AB900089E0FFEF25E02450F582A0
:1004D000E43400F583E0FEA3E0FFE4FCFD780812BD
:1004E000021990008A12027E90008A120272900015
:1004F00089E0FF745F2FF582E43400F583E0FFE4C8
:10050000FCFDFE1201E890008A12027E90008A1221
:100510000272900090E0FEA3E0FFE4FCFD1200B048
:1005200090008A12027E90008A120266C004C00502
:10053000C006C007900089E0FFEF25E02450F58257
:10054000E43400F583E0FEA3E0FFAB07AA06E4F97C
:10055000F8D007D006D005D0041200BD90008A1252
:10056000027E90008A1202667808120206900089C4
:10057000E0FDED25E02450F582E43400F583EEF053
:10058000A3EFF090008A120266900089E0FE745F8B
:100590002EF582E43400F583EFF0900089E0FF74DB
:1005A000462FF582E43400F583E4F0900093E0FFF9
:1005B0007E0090008EE0FCA3E0FDD3ED9FEC9E401A
:1005C00046900092E0FFEF603E90008EE0FEA3E0D8
:1005D000FFD3EF94FFEE94004013900089E0FF7486
:1005E000662FF582E43400F58374FFF02290008ECC
:1005F000E0FEA3E0FF900089E0FE74662EF582E441
:100600003400F583EFF022900089E0FF74662FF547
:1006100082E43400F583E4F0227B007A4679E81224
:1006200020EDEF4405FD7B007A4679E81220F9754C
:100630000A00E50AC39409503AAF0AEF75F005A421
:10064000242AF582E43421F583AF82AE838E088FAD
:1006500009AE08AF098F828E8312029CAE08AF09E3
:100660008F828E83740393FC740493FD121F99058B
:100670000A80BF7B087A007900121E6D7B007A58D1
:1006800079727D007C031220D27B007A5879487DF4
:10069000037C001220D27B017A0A79D87F007E0089
:1006A0007D047CC41220797B017A5079031220EDFD
:1006B000EF4402FD7B017A5079031220F97B017A25
:1006C0005079131220EDEF4402FD7B017A5079132B
:1006D0001220F99043A0E0FFEF4440FF9043A0EFC9
:1006E000F09043C2E0FFEF4410FF9043C2EFF07B75
:1006F000087A0279E4C003C002C0017B007A517914
:100700001290008B120293D001D002D0037F087E9A
:1007100000121D507B087A0279ECC003C002C001B0
:100720007B007A51792290008B120293D001D00283
:10073000D0037F087E00121D507B087A0279F4C036
:1007400003C002C0017B007A51795290008B1202E3
:1007500093D001D002D0037F087E00121D507B0889
:100760007A0279FCC003C002C0017B007A51796231
:1007700090008B120293D001D002D0037F087E003C
:10078000121D509044F47401F0904322E0FFEF44B6
:1007900008FF904322EFF09046ECE0FFEFC3940592
:1007A0005006904689743AF09048007431F0120B6C
:1007B0002E90480074B1F01219567B007A4379A04C
:1007C000C003C002C0017B007A4379B090008B1255
:1007D0000293D001D002D0037F0E7E00121D5090F4
:1007E00043B0E0FFEF54FDFFEFF02290008AEFF0FE
:1007F00090008AE0FFEF131313541FFF90008CEF5B
:10080000F090008AE0FFEF5407FF7401A80708800A
:1008100002C333D8FCFF90008DEFF090008AE0FF18
:10082000EF9021CD93FF90008EEFF090008EE0FFCF
:10083000EF9021D493FF90008FEFF090008EE0FFB7
:10084000EF9021DA93FF900090EFF090008EE0FFA0
:10085000EF9021DD93FF900091EFF090008EE0FF8C
:10086000EFC39401501A90008B7402F090008BE05B
:10087000FF744D2FF582E43400F5837401F0800D90
:1008800090008EE0FFEF14FF90008BEFF090008C53
:10089000E0FF745E2FF582E43400F583E0FF900002
:1008A0008DE0FEEF5EFFEF6066900090E0FF90004D
:1008B0008FE0FEC3EE9FFF90008AE0FE74662EF587
:1008C00082E43400F583E0FEEEC39F400302099604
:1008D00090008CE0FF745E2FF582E43400F583C055
:1008E00083C082E0FF90008DE0FEEEF4FEEF5EFF3D
:1008F000D082D083EFF0900091E0FF90008BE0FE7B
:10090000744D2EF582E43400F583EFF002099690E1
:100910000090E0FF90008FE0FEEE2FFF90008AE055
:10092000FE74662EF582E43400F583E0FEEED39F7C
:10093000404E90008BE0FF744D2FF582E43400F5BB
:1009400083E0FFEFD39401502390008CE0FF745EAE
:100950002FF582E43400F583C083C082E0FF90006D
:100960008DE0FEEF4EFFD082D083EFF090008BE061
:10097000FF744D2FF582E43400F583E014F0801607
:10098000900091E0FF90008BE0FE744D2EF582E424
:100990003400F583EFF090008CE0FF745E2FF58259
:1009A000E43400F583E0FF90008DE0FEEF5EFFEFA2
:1009B00060047F0180027F00227F947E017D007CA5
:1009C0000090009212027E905120E0FFEF5480FFD1
:1009D000EFF0905122E0FFEF54F0FF900091EFF024
:1009E000900091E0FFEF440FFF905122EFF0905103
:1009F00023E0FFEF54F0FF900091EFF0900091E0C2
:100A0000FF905123EFF0905124E0FFEF54F0FF905E
:100A10000091EFF0900091E0FF905124EFF09051A1
:100A200020E0FFEF54DFFFEFF0905120E0FFEF44B4
:100A300040FFEFF07F007E00121E40905120E0FF4B
:100A4000EF4410FFEFF07F017E00121E4090512115
:100A5000E0FF900091EFF0905120E0FFEF54EFFFA6
:100A6000EFF07F007E00121E40900091E0FFEF54F7
:100A700008FF900091EFF0905120E0FFEF4410FF4D
:100A8000EFF07F017E00121E40905120E0FFEF54F6
:100A9000EFFFEFF0900091E0FFEF70077F0A7E001C
:100AA000121E409000921202667BFF7AFF79FF7857
:100AB000FF1200B090009212027E900091E0FFEFD2
:100AC0006012900092120266D3EF9400EE94004000
:100AD00003020A34905120E0FFEF54BFFFEFF09083
:100AE0005120E0FFEF5480FFEFF0905122E0FFEF44
:100AF00054F0FFEFF0905123E0FFEF54F0FF90002F
:100B000091EFF0900091E0FFEF440FFF905123EF41
:100B1000F0905124E0FFEF54F0FF900091EFF0903F
:100B20000091E0FFEF440FFF905124EFF0227B0093
:100B30007A4079807D017C001220D2904082741826
:100B4000F09043007402F09040007408F09042006E
:100B50007403F07B0C7A0179081220ED9046A1EF26
:100B6000F07B007A4279227D087C001220D27B0043
:100B70007A4279207D517C121220D290008AE4F0D2
:100B80007F197E007D007C0090008612027E90001E
:100B900086120266D3EF9400EE9400404E90008AD5
:100BA000E0FFEF64036044904225E0FFEF5401FF53
:100BB0007E0090008AE0FEEE25E0FEEE4FFFEF544F
:100BC00003FF90008AEFF07FE07E017D007C001241
:100BD0001C009000861202667BFF7AFF79FF78FF87
:100BE0001200B090008612027E80A390008612024E
:100BF00066EF4E70057F031220A17B007A407904D6
:100C00007D007C011220D29040047407F0904006D1
:100C1000E4F09040087448F0904004E4F090400103
:100C20007402F09043A2E0FFEF4401FF9043A2EF73
:100C3000F02275930078007583467582E8E04401E0
:100C4000F0009046ECE0F99046FAE0FAB90322543D
:100C500020B40012B8001AEA901FFFF07401901F30
:100C6000FEF09046F6F0901FFEE06005901FFFE05A
:100C7000FA90480074C0F075810C900000780079FB
:100C800020E4F0A3D8FCD9FAEA9000A1F002001108
:100C9000750B1F750CFD121908120619020CDA02E9
:100CA0001B4EE493A3F8E493A34003F68001F208FB
:100CB000DFF48029E493A3F85407240CC8C333C499
:100CC000540F4420C8834004F456800146F6DFE404
:100CD000800B0102040810204080901498E47E01EB
:100CE0009360BCA3FF543F30E509541FFEE493A377
:100CF00060010ECF54C025E060A840B8E493A3FA89
:100D0000E493A3F8E493A3C8C582C8CAC583CAF014
:100D1000A3C8C582C8CAC583CADFE9DEE780BE9022
:100D20000086EFF0900087EDF0900088EBF09000E7
:100D300089E0FF7E007C007D0512004590008BEF6E
:100D4000F0900089E0FF7E007C007D05120045AF39
:100D50000590008CEFF0900088E0FF90008BE0FEA3
:100D6000EEC39F400A900088E0FF90008BEFF09068
:100D70000086E0FF900087E0FD1217B690008BE040
:100D8000FF90008AEFF090008AE0FFEFD3940040DC
:100D90000D7F00121CAE90008AE014F080E89000F5
:100DA00088E0FF90008BE0FEEEC39F505390008CD4
:100DB000E0FF121CE4900088E0FF7E00EF24FFFFBC
:100DC000EE34FFFE90008BE0FD7C00C3ED9FEC9EB7
:100DD000502E90008BE0FF900088E0FEC3EE9FFF56
:100DE000EF14FF90008AEFF090008AE0FFEFD394B9
:100DF00000400D7F05121CAE90008AE014F080E8E0
:100E000022121F3B7F02121EF2122064900086EF16
:100E1000F090649AE0FFEF4403FFEFF090649BE0F2
:100E2000FFEF4403FFEFF0900086E0FF121FB27B5C
:100E3000027A64792A7D007CB41220D47B027A6421
:100E4000794A7DFF7CFF1220D490648B7407F012E6
:100E50002064900086EFF090649CE0FFEF4403FF75
:100E6000EFF090649DE0FFEF4403FFEFF090008609
:100E7000E0FF121FB290642C74FFF090644C74FF7A
:100E8000F090640C74FFF090642D74FFF090645D3A
:100E900074FFF090644D74FFF09044C87401F07CCE
:100EA000117D327F001214167D077F0012169E12EC
:100EB00021057F07121A367F08121A367F09121A87
:100EC0003690647AE0FFEF4404FFEFF0121B8C12BF
:100ED0001E9A7F00121DB57F04121DE47F001220B0
:100EE000B32290FFFF1202CEEFF090647AE0FFEFA2
:100EF00054FCFFEFF090641DE0FF7E00EF7F00FEEA
:100F0000850B83850C82E0FDED25E02475F582E4F8
:100F10003400F583EEF0A3EFF0850B83850C82E0BF
:100F2000FFEF25E02475F582E43400F583C083C02B
:100F300082E0FEA3E0FF90640DE0FD7C00EE4CFE3D
:100F4000EF4DFFD082D083EEF0A3EFF0850B8385C9
:100F50000C82E0FFEF25E02475F582E43400F58390
:100F6000E0FEA3E0FFC374FF9FFF74FF9EFE850BAE
:100F700083850C82E0FDED25E02475F582E43400E4
:100F8000F583EEF0A3EFF0850B83850C82E0FF1272
:100F90000FA97F001220B3905870E0FFEF4401FFCB
:100FA000EFF09000011202CE2290FFFF1202CEEF6E
:100FB000F090FFFE1202CE850B83850C82A3A3E086
:100FC000FFEF9021A593FF850B83850C82EFF085C1
:100FD0000B83850C82A3A3E0FFEF9021AC93FF85E8
:100FE0000B83850C82A3EFF0850B83850C82A3A372
:100FF000E0FF1219A3850B83850C82E0FFEFB40F8D
:1010000009850B83850C827407F0850B83850C8220
:10101000E0FFEF25E024B3F582E43421F583E49387
:10102000FE740193FF8F828E83C083C082E0FF85B0
:101030000B83850C82A3E0FEEEF4FEEF5EFFD08210
:10104000D083EFF0850B83850C82A3A3E0FFEF250F
:10105000E02497F582E43421F583E493FE74019350
:10106000FF8F828E837408F09000031202CE2290CC
:10107000FFFF1202CEEFF090FFFE1202CE850B832F
:10108000850C82A3A3E0FFEF9021A593FF850B833E
:10109000850C82EFF0850B83850C82A3A3E0FFEF24
:1010A0009021AC93FF850B83850C82A3EFF0850B19
:1010B00083850C82A3A3E0FFEF25E02497F582E46B
:1010C0003421F583E493FE740193FF8F828E837441
:1010D00009F0850B83850C82E0FFEFB40F09850BC7
:1010E00083850C827407F0850B83850C82E0FFEF0B
:1010F00025E024B3F582E43421F583E493FE740102
:1011000093FF8F828E83C083C082E0FF850B83852F
:101110000C82A3E0FEEF4EFFD082D083EFF0850B70
:1011200083850C82A3A3E0FF121A369000031202FB
:10113000CE22C0E0C0F0C083C082C085C084C0861B
:10114000758600C093759300C0D075D000C000C0F4
:1011500001C002C003C004C005C006C00790006DF6
:10116000E0FF120EE2900083E0FFEF5480FF7E006C
:10117000EF4E6010900083E0FFEF54FEFF9000837D
:10118000EFF0803090006DE0FF12127090006DEF74
:10119000F090006DE0FFEFC39407500A90006DE0FF
:1011A000FF121AC4800E900083E0FFEF54FEFF9000
:1011B0000083EFF0D007D006D005D004D003D002D2
:1011C000D001D000D0D0D093D086D084D085D0822A
:1011D000D083D0F0D0E0327F021216FDEF60287F7E
:1011E00000121D849000AAE4F0A37401F09000A600
:1011F000E4F0A3E4F07D0B7F011217B67BFF7A20A9
:10120000798E1218BA80089000AAE4F0A3E4F09056
:1012100000AAE0FEA3E0FFEF4E70549000A674FF1A
:1012200075F0FF12009A9000A6E0FEA3E0FFEEC367
:1012300013FEEF13FF900089EFF07B107D007F001D
:10124000120D1F7F647E007D007C001215D6900079
:10125000A6E0FEA3E0FFEF4E70157D0B7F01121795
:10126000B67BFF7A2079941218BA7F01121D84226E
:1012700090FFFF1202CEEFF090FFFE1202CE850B20
:1012800083850C82A3A3E004F0850B83850C82A3E5
:10129000A3E0FFEF6407605F850B83850C82A3A347
:1012A000E0FFEF131313541FFF850B83850C82EFB0
:1012B000F0850B83850C82A3A3E0FFEF5407FF7436
:1012C00001A807088002C333D8FCFF850B83850C77
:1012D00082A3EFF0850B83850C82E0FF74852FF5E8
:1012E00082E43400F583E0FF850B83850C82A3E064
:1012F000FEEF5EFFEF6087850B83850C82A3A3E082
:10130000FF9000031202CE22900094EFF090009420
:10131000E0FFEF9021CD93FF900095EFF0900094C7
:10132000E0FFEF25E02475F582E43400F583E0FE6C
:10133000A3E0FF900094E0FDED25E02450F582E469
:101340003400F583EEF0A3EFF0900094E0FF745FBB
:101350002FF582E43400F583E4F0900094E0FF740C
:10136000662FF582E43400F583E4F0900095E0FF09
:10137000EFD39400401C900095E0FFEF9021DD93A7
:10138000FF900095E0FE744C2EF582E43400F58366
:10139000EFF0227F287E007D007C001215D67F03AF
:1013A0001219ED7F057E007D007C001215D67F03AB
:1013B0001219ED7F0F7E007D007C001215D67F0391
:1013C0001219ED7F017E007D007C001215D67F0290
:1013D0001219ED7F057E007D007C001215D67F0678
:1013E000121D1A7F0E121D1A7F2C121D1A7F081251
:1013F0001D1A7F01121D1A7F0C121D1A7F03121D68
:101400001A7F057E007D007C001215D67BFF7A21B5
:101410007957121A7D22900087EFF0900088ECF047
:10142000A3EDF0900087E0FFEFD3941F5003D3802B
:1014300001C340057F0012203A900087E0FFEF547F
:101440001FFF7E00EF25E0FFEE33FEEF2400FFEEEE
:101450003444FEAA06A9077B011220C590008AEE3B
:10146000F0A3EFF0900087E0FF7E02EF8EF0A4FF84
:10147000AEF0EF2400FFEE3444FEAA06A9077B017C
:10148000900088E0FEA3E0FFAD07AC061220D490E8
:10149000008AE0FEA3E0FF224200A600A04200AEC8
:1014A00000004200AA00004200A813884200AC00DD
:1014B000004100B6004100B50044009D016E3600B9
:1014C00044009800005DC041009C184400A22EE03A
:1014D0000000410084004100857F47006E0B0B0B2C
:1014E0000B0B0B0B43004D0000004100B900410005
:1014F000B8004100B7FF4100BA004300B00000004F
:101500004100BB000090FFFF1202CEEFF090FFFF02
:101510001202CE850B83850C82A3E0FFEF9021CDD4
:1015200093FF850B83850C82EFF0850B83850C82FE
:10153000A3E0FFEF9021C393FF1220B3850B8385B7
:101540000C82E0FFEF9021CA93FF90645CEFF0857E
:101550000B83850C82A3E0FF746E2FF582E43400C8
:10156000F583E0FF121E139000021202CE229000BB
:1015700086E4F0900086E0FFEFC394075057900098
:1015800086E0FFEF131313541FFF900087EFF090D6
:101590000086E0FFEF5407FF7401A807088002C32C
:1015A00033D8FCFF900088EFF0900087E0FF74854F
:1015B0002FF582E43400F583E0FF900088E0FEEF31
:1015C0005EFFEF6008900086E0FF12035F900086E8
:1015D000E004F0809E2290FFFC1202CE12027E8573
:1015E0000B83850C82120266D3EF9400EE94804048
:1015F0002F9000A2120266121C00850B83850C82BC
:10160000C083C082120266EF2400FFEE3480FEED3C
:1016100034FFFDEC34FFFCD082D08312027E80BF09
:10162000900098120266850B83850C82120272125A
:1016300000CB121C009000041202CE22900087EF13
:10164000F0900087E0FFEF5403FF905840E0FEEE7B
:1016500054FCFEEE4FFF905840EFF0900087E0FF03
:10166000EFB4011D7B0C7A0179101220ED90463009
:10167000EFF07B0C7A0179141220ED904631EFF0F7
:10168000227B0C7A0179AD1220ED904630EFF07B91
:101690000C7A0179B51220ED904631EFF0229000DE
:1016A00087EFF0900088EDF0900088E0FFEFD39492
:1016B000075003D38001C340057F0012203A9000F9
:1016C00087E0FFEFD3941F5003D38001C340057F11
:1016D0000012203A900088E0FFEF5407FF7E00EFF1
:1016E00075F020A4FFAEF0900087E0FEEE541FFEE0
:1016F00074802EF582E43444F583EFF02290008666
:10170000EFF0900086E0FFEF9021E093FF900087DC
:10171000EFF0900086E0FFEF9021E393FF900087C9
:10172000E0FEEF2EFF900088EFF0900089E4F0904B
:101730000087E0FF1207EBEF60069000897401F06C
:10174000900087E004F0900088E0FF900087E0FEC2
:10175000EEC39F40DA900089E0FF2290008FEFF007
:10176000905120E0FFEF4420FFEFF0905120E0FF88
:10177000EF54BFFFEFF07F007E00121E409051201B
:10178000E0FFEF54F0FFEFF0905120C083C082E003
:10179000FF90008FE0FEEE4410FEEF4EFFD082D0AF
:1017A00083EFF07F017E00121E40905120E0FFEF9A
:1017B00054EFFFEFF02290008DEFF090008EEDF0EF
:1017C00090008DE0FFEF1202A817D90017E601176D
:1017D000F3021800030000180C90008EE0FFEF24C5
:1017E00080FF121D1A2290008EE0FFEF24C0FF122E
:1017F0001D1A2290008EE0FFEF2494FF121D1A2282
:1018000090008EE0FFEF24D4FF121D1A22122064F4
:10181000900086EFF090649BE0FFEF4420FFEFF034
:10182000121FCA121FE1121FF89043BBE0FFEF44E2
:1018300010FFEFF09043ABE0FFEF4410FFEFF090AC
:101840005870E0FFEF4401FFEFF0900086E0FF12D8
:101850001FB29044C07401F090647AE0FFEF4480BE
:10186000FFEFF022905824E0FFEF540CFF7E00EED3
:10187000C313FEEF13FF900088EFF0905825E0FFB0
:10188000EF5404FF7E00EF64044E7006900088E081
:1018900004F0900088E0FFE4FCFDFEEF2430FFEE52
:1018A0003401FEED340CFDEC3400FCA907AA06ABB4
:1018B000051220ED904609EFF02290008612029367
:1018C0009000897401F090008612028A12001AFFBB
:1018D00090008AEFF090008AE0FFEF602A90008A83
:1018E000E0FF121CE490008612028A900089E0FF5B
:1018F000E92FF9E43AFA12001AFF90008AEFF0900B
:101900000089E004F080CE22900086E4F09000860A
:10191000E0FFEFD3941F503D900086E0FF7E02EF82
:101920008EF0A4FFAEF0EF2400FFEE3444FEAA06D2
:10193000A9077B01C003C002C0017BFF7A2179099E
:10194000AC02AD01D001D002D0031220D4900086A9
:10195000E004F080B8227B0C7A0179CF1220ED9060
:101960000086EFF0900086E0FFEF5407FF90586E7E
:10197000EFF0900086E0FFEFC4540FFFEF540FFF2D
:1019800090586FEFF090516D7410F0905870E4F033
:10199000905AC37420F0905B5B7401F09058767499
:1019A00044F022900096EFF0900096E0FFEFC39491
:1019B0000A5039900096E0FFEF25E0240CF582E410
:1019C0003421F583E493FE740193FF8F828E83C0EC
:1019D00083C082E0FF900096E0FEEE90212093FE0F
:1019E000EEF4FEEF5EFFD082D083EFF02290009104
:1019F000EFF0905120E0FFEF549FFFEFF090512067
:101A0000E0FFEF54F0FFEFF0905120C083C082E080
:101A1000FF900091E0FEEE4410FEEF4EFFD082D02A
:101A200083EFF07F017E00121E40905120E0FFEF17
:101A300054EFFFEFF022900096EFF0900096E0FF59
:101A4000EFC3940A5036900096E0FFEF25E0240C97
:101A5000F582E43421F583E493FE740193FF8F82D1
:101A60008E83C083C082E0FF900096E0FEEE90215E
:101A70002093FEEF4EFFD082D083EFF022900086BD
:101A80001202931209B97F40121D1A900089E4F0E6
:101A9000900089E0FFEFC39440502090008612022E
:101AA0008A900089E0FFE92FF9E43AFA12001AFF60
:101AB000121CE4900089E004F080D51209B97F80FF
:101AC000121D1A2290FFFF1202CEEFF0850B8385C4
:101AD0000C82E0FF12150590647AE0FFEF4401FFED
:101AE000EFF0905870E0FFEF54FEFFEFF0850B83AE
:101AF000850C82E0FF12106F90647AE0FFEF4402E1
:101B0000FFEFF09000011202CE22C2D5E830E70FBD
:101B1000B2D5E4C39BFBE49AFAE499F9E498F8ECB3
:101B200030E717B2D5121B40120156E4C39BFBE409
:101B30009AFAE499F9E498F8800312015630D50D29
:101B4000E4C39FFFE49EFEE49DFDE49CFC22D2AF33
:101B50009044F474FDF012202512204F7BFF7A216F
:101B60007957121A7D7D007F011217B67BFF7A200C
:101B7000799A1218BA121F5C12200FEF7006121514
:101B80006E121C3B1211D780EF80FE227F001216CE
:101B90003C905840E0FFEF4420FFEFF0905840E0C9
:101BA000FFEF54FBFFEFF0905840E0FFEF4408FFD9
:101BB000EFF0905AC7E0FFEF54E7FFEFF0905AC7FD
:101BC000E0FFEF4410FFEFF02290008FEFF0905114
:101BD00020E0FFEF54EFFFEFF0905120C083C08270
:101BE000E0FF90008FE0FEEE4410FEEF4EFFD0824B
:101BF000D083EFF0905120E0FFEF4420FFEFF02280
:101C0000EC4D4E700D78FCEF24E950032840FD2286
:101C100000007BF178DA0000EF28FF78FFEE38FE55
:101C2000ED38FDEC38FC50E7EF2BFFEE38FEED38D9
:101C3000FDEC38FC40F22205020304900083E4F03E
:101C400090006D74FFF090006DE0FF121270900034
:101C50006DEFF090006DE0FFEFC394075016900019
:101C600083E0FFEF4401FF900083EFF090006DE010
:101C7000FF121AC42290FFFF1202CE850B83850C3F
:101C800082E4F0850B83850C82E0FFEFC3940A5059
:101C900016850B83850C82E0FF1219A3850B8385C3
:101CA0000C82E004F080DC9000011202CE22900051
:101CB0008DEFF01209B990008DE0FFEFC4540FFFD3
:101CC00090008EEFF090008EE0FF121BC990008D07
:101CD000E0FFEF540FFF90008EEFF090008EE0FFDA
:101CE000121BC92290008DEFF01209B990008DE00F
:101CF000FFEFC4540FFF90008EEFF090008EE0FFD6
:101D000012175B90008DE0FFEF540FFF90008EEFF5
:101D1000F090008EE0FF12175B2290008FEFF01220
:101D200009B990008FE0FFEFC4540FFF900090EFCF
:101D3000F0900090E0FF1219ED90008FE0FFEF545B
:101D40000FFF900090EFF0900090E0FF1219ED224D
:101D5000758600EF4E6027EF60010E7593009000CE
:101D60008BE0F595A3E0F585A3E0F5848B938A835A
:101D70008982E0A30586F0A31586DFF6DEF4E4F59C
:101D800093F59522900086EFF0905160E0FFEF54BC
:101D9000F7FF900087EFF0900086E0FFEF333333DA
:101DA00054F8FFEF5408FF900087E0FEEF4EFF90DD
:101DB0005160EFF022900087EFF0905825E0FFEFA0
:101DC00054FBFFEFF0905825C083C082E0FF9000E5
:101DD00087E0FEEE5404FEEF4EFFD082D083EFF09A
:101DE00012186422900087EFF0905824E0FFEF541F
:101DF000F3FFEFF0905824C083C082E0FF9000878B
:101E0000E0FEEE540CFEEF4EFFD082D083EFF012D6
:101E100018642290FFFF1202CEEFF0850B83850C31
:101E200082E0FF906429EFF0850B83850C82E0FF50
:101E3000EFC313FF906439EFF09000011202CE223D
:101E4000EEFA90009CE0F88FF0A4FFAEF0E88AF084
:101E5000A42EFEE5F03400FDEF24C9FF78FFEE3834
:101E6000FEED38FDE438FC5003021C0022ACEAAD64
:101E7000A08B938A838982E0F96017A3E0F5EAA337
:101E8000E0F5A0A3E060F4FAA3E0F8A3E0F2DAF84A
:101E9000D9E98DA08CEAE4F593229058247414F0CB
:101EA000905825E4F0905825E0FFEF4404FFEFF050
:101EB000905825E0FFEF4402FFEFF07F007E001214
:101EC0001EC612186422900087EFF0905824E0FF9D
:101ED000EF54FDFFEFF0905824C083C082E0FF90E4
:101EE0000087E0FEEE5402FEEF4EFFD082D083EF7B
:101EF000F022900087EFF0900087E0FFEFB4010C34
:101F000090647AE0FFEF54EFFFEFF02290647AE004
:101F1000FFEF4410FFEFF022900088EFF090008375
:101F2000E4F0900088E0FF90006DEFF09000837483
:101F300081F0900088E0FF121AC422900087E4F03C
:101F4000900087E0FFEFC394075010900087E0FFF8
:101F5000120FA9900087E004F080E522900086E44B
:101F6000F0900086E0FFEFC394075010900086E0E9
:101F7000FF121F7D900086E004F080E5229000872C
:101F8000EFF0900087E0FF121F1812200FEF70FA99
:101F9000900087E0FF12130822EC4D6011ED600104
:101FA0000C8B938A838982E4F0A3DDFCDCFA7593C1
:101FB0000022EF54016004D2AF8002C2AFEF54029E
:101FC000FF9044F4E054FD4FF0229043A2E0FFEF75
:101FD0004401FFEFF09043B2E0FFEF4401FFEFF068
:101FE000229043A7E0FFEF4401FFEFF09043B7E0FA
:101FF000FFEF4401FFEFF0229043A8E0FFEF44021F
:10200000FFEFF09043B8E0FFEF4402FFEFF02290C3
:102010000083E0FFEF5401FF7E00EF4E60047F017C
:1020200080027F00229000B5E0FFEF700912139349
:102030009000B57401F01220E12290FFFF1202CE51
:10204000EFF09046EA7401F09000011202CE229067
:102050000084E0FFEF7009120E019000847401F01B
:1020600012180D229044F4E0F84402F0E85402FF04
:1020700010AF012274014FFF228B938A838982EF74
:10208000F0A3EEF0A3EDF0A3ECF075930022202076
:1020900020202000416C61726D004B6F7270616E88
:1020A0000090008BEFF090008BE0FF90008BEFF042
:1020B00080FE22900096EFF0900096E0FF905B810A
:1020C000EFF0228B938A838982E0FFA3E0FE759371
:1020D00000228B938A838982EDF0A3ECF075930044
:1020E000227F0C121D1A9000B67401F0228B938A85
:1020F000838982E0759300FF228B938A838982ED26
:10210000F075930022121C752280FE32515C515CE6
:10211000515C515C515C515C515C516C5AC35A8B9F
:1021200001020408102040100110005100001000AE
:10213000513000200051C000100051F0001001008B
:1021400000100001140008000140000A00014C00CA
:1021500002000150000020000000000000000010FC
:102160001010101010101018181818181818181C23
:102170001C1C1C1C1C1C1C1E1E1E1E1E1E1E1E1F8C
:102180001F1F1F1F1F1F1F00000000000000000076
:102190000000000000000050285029502A502B5009
:1021A0002C502D502E0505050505050501020408D6
:1021B0001020405206520E5216521E5226522E52D5
:1021C00036527EC8C8C8C8C8C8C83F3F1F000000F4
:1021D00000000102547C422A2D210012090105054C
:0821E0000005060501011900CC
:00000001FF
